{
  "_format": "hh-sol-artifact-1",
  "contractName": "HPContract",
  "sourceName": "contracts/HPContract.sol",
  "abi": [
    {
      "inputs": [],
      "stateMutability": "nonpayable",
      "type": "constructor"
    },
    {
      "anonymous": false,
      "inputs": [
        {
          "indexed": true,
          "internalType": "address",
          "name": "owner",
          "type": "address"
        },
        {
          "indexed": true,
          "internalType": "address",
          "name": "spender",
          "type": "address"
        },
        {
          "indexed": false,
          "internalType": "uint256",
          "name": "value",
          "type": "uint256"
        }
      ],
      "name": "Approval",
      "type": "event"
    },
    {
      "anonymous": false,
      "inputs": [
        {
          "indexed": false,
          "internalType": "uint256",
          "name": "amount",
          "type": "uint256"
        }
      ],
      "name": "Bought",
      "type": "event"
    },
    {
      "anonymous": false,
      "inputs": [
        {
          "indexed": true,
          "internalType": "bytes32",
          "name": "role",
          "type": "bytes32"
        },
        {
          "indexed": true,
          "internalType": "bytes32",
          "name": "previousAdminRole",
          "type": "bytes32"
        },
        {
          "indexed": true,
          "internalType": "bytes32",
          "name": "newAdminRole",
          "type": "bytes32"
        }
      ],
      "name": "RoleAdminChanged",
      "type": "event"
    },
    {
      "anonymous": false,
      "inputs": [
        {
          "indexed": true,
          "internalType": "bytes32",
          "name": "role",
          "type": "bytes32"
        },
        {
          "indexed": true,
          "internalType": "address",
          "name": "account",
          "type": "address"
        },
        {
          "indexed": true,
          "internalType": "address",
          "name": "sender",
          "type": "address"
        }
      ],
      "name": "RoleGranted",
      "type": "event"
    },
    {
      "anonymous": false,
      "inputs": [
        {
          "indexed": true,
          "internalType": "bytes32",
          "name": "role",
          "type": "bytes32"
        },
        {
          "indexed": true,
          "internalType": "address",
          "name": "account",
          "type": "address"
        },
        {
          "indexed": true,
          "internalType": "address",
          "name": "sender",
          "type": "address"
        }
      ],
      "name": "RoleRevoked",
      "type": "event"
    },
    {
      "anonymous": false,
      "inputs": [
        {
          "indexed": false,
          "internalType": "uint256",
          "name": "amount",
          "type": "uint256"
        }
      ],
      "name": "Sold",
      "type": "event"
    },
    {
      "anonymous": false,
      "inputs": [
        {
          "indexed": true,
          "internalType": "address",
          "name": "from",
          "type": "address"
        },
        {
          "indexed": true,
          "internalType": "address",
          "name": "to",
          "type": "address"
        },
        {
          "indexed": false,
          "internalType": "uint256",
          "name": "value",
          "type": "uint256"
        }
      ],
      "name": "Transfer",
      "type": "event"
    },
    {
      "inputs": [],
      "name": "DEFAULT_ADMIN_ROLE",
      "outputs": [
        {
          "internalType": "bytes32",
          "name": "",
          "type": "bytes32"
        }
      ],
      "stateMutability": "view",
      "type": "function"
    },
    {
      "inputs": [],
      "name": "HPtoken",
      "outputs": [
        {
          "internalType": "contract ERC20",
          "name": "",
          "type": "address"
        }
      ],
      "stateMutability": "view",
      "type": "function"
    },
    {
      "inputs": [],
      "name": "MINTER_ROLE",
      "outputs": [
        {
          "internalType": "bytes32",
          "name": "",
          "type": "bytes32"
        }
      ],
      "stateMutability": "view",
      "type": "function"
    },
    {
      "inputs": [],
      "name": "USDCHouseAccount",
      "outputs": [
        {
          "internalType": "contract ERC20",
          "name": "",
          "type": "address"
        }
      ],
      "stateMutability": "view",
      "type": "function"
    },
    {
      "inputs": [
        {
          "internalType": "address",
          "name": "owner",
          "type": "address"
        },
        {
          "internalType": "address",
          "name": "spender",
          "type": "address"
        }
      ],
      "name": "allowance",
      "outputs": [
        {
          "internalType": "uint256",
          "name": "",
          "type": "uint256"
        }
      ],
      "stateMutability": "view",
      "type": "function"
    },
    {
      "inputs": [
        {
          "internalType": "address",
          "name": "spender",
          "type": "address"
        },
        {
          "internalType": "uint256",
          "name": "amount",
          "type": "uint256"
        }
      ],
      "name": "approve",
      "outputs": [
        {
          "internalType": "bool",
          "name": "",
          "type": "bool"
        }
      ],
      "stateMutability": "nonpayable",
      "type": "function"
    },
    {
      "inputs": [
        {
          "internalType": "address",
          "name": "account",
          "type": "address"
        }
      ],
      "name": "balanceOf",
      "outputs": [
        {
          "internalType": "uint256",
          "name": "",
          "type": "uint256"
        }
      ],
      "stateMutability": "view",
      "type": "function"
    },
    {
      "inputs": [
        {
          "internalType": "uint256",
          "name": "",
          "type": "uint256"
        },
        {
          "internalType": "uint256",
          "name": "",
          "type": "uint256"
        }
      ],
      "name": "betSlips",
      "outputs": [
        {
          "internalType": "address",
          "name": "better",
          "type": "address"
        },
        {
          "internalType": "uint256",
          "name": "amount",
          "type": "uint256"
        },
        {
          "internalType": "bool",
          "name": "bet_on",
          "type": "bool"
        },
        {
          "internalType": "uint256",
          "name": "odds",
          "type": "uint256"
        }
      ],
      "stateMutability": "view",
      "type": "function"
    },
    {
      "inputs": [
        {
          "internalType": "uint256",
          "name": "amount",
          "type": "uint256"
        }
      ],
      "name": "burn",
      "outputs": [],
      "stateMutability": "nonpayable",
      "type": "function"
    },
    {
      "inputs": [
        {
          "internalType": "address",
          "name": "account",
          "type": "address"
        },
        {
          "internalType": "uint256",
          "name": "amount",
          "type": "uint256"
        }
      ],
      "name": "burnFrom",
      "outputs": [],
      "stateMutability": "nonpayable",
      "type": "function"
    },
    {
      "inputs": [],
      "name": "decimals",
      "outputs": [
        {
          "internalType": "uint8",
          "name": "",
          "type": "uint8"
        }
      ],
      "stateMutability": "pure",
      "type": "function"
    },
    {
      "inputs": [
        {
          "internalType": "address",
          "name": "spender",
          "type": "address"
        },
        {
          "internalType": "uint256",
          "name": "subtractedValue",
          "type": "uint256"
        }
      ],
      "name": "decreaseAllowance",
      "outputs": [
        {
          "internalType": "bool",
          "name": "",
          "type": "bool"
        }
      ],
      "stateMutability": "nonpayable",
      "type": "function"
    },
    {
      "inputs": [
        {
          "internalType": "bytes32",
          "name": "role",
          "type": "bytes32"
        }
      ],
      "name": "getRoleAdmin",
      "outputs": [
        {
          "internalType": "bytes32",
          "name": "",
          "type": "bytes32"
        }
      ],
      "stateMutability": "view",
      "type": "function"
    },
    {
      "inputs": [],
      "name": "get_HPLocked",
      "outputs": [
        {
          "internalType": "uint256",
          "name": "",
          "type": "uint256"
        }
      ],
      "stateMutability": "view",
      "type": "function"
    },
    {
      "inputs": [],
      "name": "get_HPUSDC",
      "outputs": [
        {
          "internalType": "uint256",
          "name": "",
          "type": "uint256"
        }
      ],
      "stateMutability": "view",
      "type": "function"
    },
    {
      "inputs": [],
      "name": "get_exchange_rate",
      "outputs": [
        {
          "internalType": "uint256",
          "name": "",
          "type": "uint256"
        }
      ],
      "stateMutability": "view",
      "type": "function"
    },
    {
      "inputs": [
        {
          "internalType": "bytes32",
          "name": "role",
          "type": "bytes32"
        },
        {
          "internalType": "address",
          "name": "account",
          "type": "address"
        }
      ],
      "name": "grantRole",
      "outputs": [],
      "stateMutability": "nonpayable",
      "type": "function"
    },
    {
      "inputs": [
        {
          "internalType": "bytes32",
          "name": "role",
          "type": "bytes32"
        },
        {
          "internalType": "address",
          "name": "account",
          "type": "address"
        }
      ],
      "name": "hasRole",
      "outputs": [
        {
          "internalType": "bool",
          "name": "",
          "type": "bool"
        }
      ],
      "stateMutability": "view",
      "type": "function"
    },
    {
      "inputs": [
        {
          "internalType": "address",
          "name": "spender",
          "type": "address"
        },
        {
          "internalType": "uint256",
          "name": "addedValue",
          "type": "uint256"
        }
      ],
      "name": "increaseAllowance",
      "outputs": [
        {
          "internalType": "bool",
          "name": "",
          "type": "bool"
        }
      ],
      "stateMutability": "nonpayable",
      "type": "function"
    },
    {
      "inputs": [],
      "name": "locked_liquidity",
      "outputs": [
        {
          "internalType": "uint256",
          "name": "",
          "type": "uint256"
        }
      ],
      "stateMutability": "view",
      "type": "function"
    },
    {
      "inputs": [],
      "name": "name",
      "outputs": [
        {
          "internalType": "string",
          "name": "",
          "type": "string"
        }
      ],
      "stateMutability": "view",
      "type": "function"
    },
    {
      "inputs": [
        {
          "internalType": "uint256",
          "name": "amount",
          "type": "uint256"
        }
      ],
      "name": "process_deposit",
      "outputs": [],
      "stateMutability": "nonpayable",
      "type": "function"
    },
    {
      "inputs": [
        {
          "internalType": "address",
          "name": "better",
          "type": "address"
        },
        {
          "internalType": "uint256",
          "name": "amount",
          "type": "uint256"
        },
        {
          "internalType": "bool",
          "name": "bet_on",
          "type": "bool"
        },
        {
          "internalType": "uint256",
          "name": "odds",
          "type": "uint256"
        },
        {
          "internalType": "uint256",
          "name": "betId",
          "type": "uint256"
        }
      ],
      "name": "process_initbet",
      "outputs": [],
      "stateMutability": "nonpayable",
      "type": "function"
    },
    {
      "inputs": [
        {
          "internalType": "uint256",
          "name": "betId",
          "type": "uint256"
        },
        {
          "internalType": "bool",
          "name": "bet_on",
          "type": "bool"
        }
      ],
      "name": "process_settle",
      "outputs": [],
      "stateMutability": "nonpayable",
      "type": "function"
    },
    {
      "inputs": [
        {
          "internalType": "uint256",
          "name": "amount",
          "type": "uint256"
        }
      ],
      "name": "process_withdrawal",
      "outputs": [],
      "stateMutability": "nonpayable",
      "type": "function"
    },
    {
      "inputs": [
        {
          "internalType": "bytes32",
          "name": "role",
          "type": "bytes32"
        },
        {
          "internalType": "address",
          "name": "account",
          "type": "address"
        }
      ],
      "name": "renounceRole",
      "outputs": [],
      "stateMutability": "nonpayable",
      "type": "function"
    },
    {
      "inputs": [
        {
          "internalType": "bytes32",
          "name": "role",
          "type": "bytes32"
        },
        {
          "internalType": "address",
          "name": "account",
          "type": "address"
        }
      ],
      "name": "revokeRole",
      "outputs": [],
      "stateMutability": "nonpayable",
      "type": "function"
    },
    {
      "inputs": [
        {
          "internalType": "bytes4",
          "name": "interfaceId",
          "type": "bytes4"
        }
      ],
      "name": "supportsInterface",
      "outputs": [
        {
          "internalType": "bool",
          "name": "",
          "type": "bool"
        }
      ],
      "stateMutability": "view",
      "type": "function"
    },
    {
      "inputs": [],
      "name": "symbol",
      "outputs": [
        {
          "internalType": "string",
          "name": "",
          "type": "string"
        }
      ],
      "stateMutability": "view",
      "type": "function"
    },
    {
      "inputs": [],
      "name": "totalSupply",
      "outputs": [
        {
          "internalType": "uint256",
          "name": "",
          "type": "uint256"
        }
      ],
      "stateMutability": "view",
      "type": "function"
    },
    {
      "inputs": [
        {
          "internalType": "uint256",
          "name": "",
          "type": "uint256"
        }
      ],
      "name": "totals",
      "outputs": [
        {
          "internalType": "int256",
          "name": "",
          "type": "int256"
        }
      ],
      "stateMutability": "view",
      "type": "function"
    },
    {
      "inputs": [
        {
          "internalType": "address",
          "name": "recipient",
          "type": "address"
        },
        {
          "internalType": "uint256",
          "name": "amount",
          "type": "uint256"
        }
      ],
      "name": "transfer",
      "outputs": [
        {
          "internalType": "bool",
          "name": "",
          "type": "bool"
        }
      ],
      "stateMutability": "nonpayable",
      "type": "function"
    },
    {
      "inputs": [
        {
          "internalType": "address",
          "name": "sender",
          "type": "address"
        },
        {
          "internalType": "address",
          "name": "recipient",
          "type": "address"
        },
        {
          "internalType": "uint256",
          "name": "amount",
          "type": "uint256"
        }
      ],
      "name": "transferFrom",
      "outputs": [
        {
          "internalType": "bool",
          "name": "",
          "type": "bool"
        }
      ],
      "stateMutability": "nonpayable",
      "type": "function"
    },
    {
      "inputs": [
        {
          "internalType": "address",
          "name": "better",
          "type": "address"
        },
        {
          "internalType": "uint256",
          "name": "amount",
          "type": "uint256"
        },
        {
          "internalType": "bool",
          "name": "bet_on",
          "type": "bool"
        },
        {
          "internalType": "uint256",
          "name": "odds",
          "type": "uint256"
        },
        {
          "internalType": "uint256",
          "name": "betId",
          "type": "uint256"
        }
      ],
      "name": "update_bet",
      "outputs": [],
      "stateMutability": "nonpayable",
      "type": "function"
    },
    {
      "stateMutability": "payable",
      "type": "receive"
    }
  ],
  "bytecode": "0x608060405273d92e713d051c37ebb2561803a3b5fbabc4962431600760006101000a81548173ffffffffffffffffffffffffffffffffffffffff021916908373ffffffffffffffffffffffffffffffffffffffff1602179055503480156200006657600080fd5b506040518060400160405280601081526020017f486f75736520506f6f6c20546f6b656e000000000000000000000000000000008152506040518060400160405280600381526020017f48505400000000000000000000000000000000000000000000000000000000008152508160039080519060200190620000eb929190620002d7565b50806004908051906020019062000104929190620002d7565b5050506200011c6000801b306200015c60201b60201c565b6200014e7f9f2df0fed2c77648de5860a4cc508cd0818c85b8b8a1ab4ceeef8d981c8956a6306200015c60201b60201c565b6000600a81905550620003ec565b6200016e82826200017260201b60201c565b5050565b6200018482826200026460201b60201c565b620002605760016005600084815260200190815260200160002060000160008373ffffffffffffffffffffffffffffffffffffffff1673ffffffffffffffffffffffffffffffffffffffff16815260200190815260200160002060006101000a81548160ff02191690831515021790555062000205620002cf60201b60201c565b73ffffffffffffffffffffffffffffffffffffffff168173ffffffffffffffffffffffffffffffffffffffff16837f2f8788117e7eff1d82e926ec794901d17c78024a50270940304540a733656f0d60405160405180910390a45b5050565b60006005600084815260200190815260200160002060000160008373ffffffffffffffffffffffffffffffffffffffff1673ffffffffffffffffffffffffffffffffffffffff16815260200190815260200160002060009054906101000a900460ff16905092915050565b600033905090565b828054620002e59062000387565b90600052602060002090601f01602090048101928262000309576000855562000355565b82601f106200032457805160ff191683800117855562000355565b8280016001018555821562000355579182015b828111156200035457825182559160200191906001019062000337565b5b50905062000364919062000368565b5090565b5b808211156200038357600081600090555060010162000369565b5090565b60006002820490506001821680620003a057607f821691505b60208210811415620003b757620003b6620003bd565b5b50919050565b7f4e487b7100000000000000000000000000000000000000000000000000000000600052602260045260246000fd5b61425c80620003fc6000396000f3fe6080604052600436106101fd5760003560e01c8063882840f71161010d578063a9059cbb116100a0578063d547741f1161006f578063d547741f1461078a578063dd62ed3e146107b3578063eb8fea94146107f0578063f97cf2eb1461081b578063fe9f6e241461085b57610204565b8063a9059cbb146106ce578063bcc2dc221461070b578063ce5ae1a014610734578063d53913931461075f57610204565b806395d89b41116100dc57806395d89b4114610612578063a217fddf1461063d578063a296715914610668578063a457c2d71461069157610204565b8063882840f71461055657806390bccb1414610581578063917da8ee146105ac57806391d14854146105d557610204565b80632f2ff15d1161019057806342966c681161015f57806342966c6814610473578063539bda541461049c57806370a08231146104c557806379cc679014610502578063805488861461052b57610204565b80632f2ff15d146103b9578063313ce567146103e257806336568abe1461040d578063395093511461043657610204565b806318160ddd116101cc57806318160ddd146102d75780631b3387101461030257806323b872dd1461033f578063248a9ca31461037c57610204565b806301ffc9a71461020957806306fdde0314610246578063095ea7b3146102715780630ae27965146102ae57610204565b3661020457005b600080fd5b34801561021557600080fd5b50610230600480360381019061022b9190612ed7565b610886565b60405161023d919061349b565b60405180910390f35b34801561025257600080fd5b5061025b610900565b6040516102689190613507565b60405180910390f35b34801561027d57600080fd5b5061029860048036038101906102939190612d96565b610992565b6040516102a5919061349b565b60405180910390f35b3480156102ba57600080fd5b506102d560048036038101906102d09190612dd2565b6109b0565b005b3480156102e357600080fd5b506102ec610ad6565b6040516102f99190613769565b60405180910390f35b34801561030e57600080fd5b5061032960048036038101906103249190612f00565b610ae0565b60405161033691906134ec565b60405180910390f35b34801561034b57600080fd5b5061036660048036038101906103619190612d47565b610af8565b604051610373919061349b565b60405180910390f35b34801561038857600080fd5b506103a3600480360381019061039e9190612e72565b610bf9565b6040516103b091906134b6565b60405180910390f35b3480156103c557600080fd5b506103e060048036038101906103db9190612e9b565b610c19565b005b3480156103ee57600080fd5b506103f7610c42565b6040516104049190613784565b60405180910390f35b34801561041957600080fd5b50610434600480360381019061042f9190612e9b565b610c4b565b005b34801561044257600080fd5b5061045d60048036038101906104589190612d96565b610cce565b60405161046a919061349b565b60405180910390f35b34801561047f57600080fd5b5061049a60048036038101906104959190612f00565b610d7a565b005b3480156104a857600080fd5b506104c360048036038101906104be9190612f00565b610d8e565b005b3480156104d157600080fd5b506104ec60048036038101906104e79190612ce2565b610f2b565b6040516104f99190613769565b60405180910390f35b34801561050e57600080fd5b5061052960048036038101906105249190612d96565b610f73565b005b34801561053757600080fd5b50610540610ff7565b60405161054d9190613769565b60405180910390f35b34801561056257600080fd5b5061056b6110a9565b60405161057891906134d1565b60405180910390f35b34801561058d57600080fd5b506105966110cf565b6040516105a391906134d1565b60405180910390f35b3480156105b857600080fd5b506105d360048036038101906105ce9190612dd2565b6110f5565b005b3480156105e157600080fd5b506105fc60048036038101906105f79190612e9b565b611356565b604051610609919061349b565b60405180910390f35b34801561061e57600080fd5b506106276113c1565b6040516106349190613507565b60405180910390f35b34801561064957600080fd5b50610652611453565b60405161065f91906134b6565b60405180910390f35b34801561067457600080fd5b5061068f600480360381019061068a9190612f00565b61145a565b005b34801561069d57600080fd5b506106b860048036038101906106b39190612d96565b611515565b6040516106c5919061349b565b60405180910390f35b3480156106da57600080fd5b506106f560048036038101906106f09190612d96565b611609565b604051610702919061349b565b60405180910390f35b34801561071757600080fd5b50610732600480360381019061072d9190612f52565b611627565b005b34801561074057600080fd5b506107496118f0565b6040516107569190613769565b60405180910390f35b34801561076b57600080fd5b506107746118f6565b60405161078191906134b6565b60405180910390f35b34801561079657600080fd5b506107b160048036038101906107ac9190612e9b565b61191a565b005b3480156107bf57600080fd5b506107da60048036038101906107d59190612d0b565b611943565b6040516107e79190613769565b60405180910390f35b3480156107fc57600080fd5b506108056119ca565b6040516108129190613769565b60405180910390f35b34801561082757600080fd5b50610842600480360381019061083d9190612f8e565b6119d4565b6040516108529493929190613456565b60405180910390f35b34801561086757600080fd5b50610870611a4e565b60405161087d9190613769565b60405180910390f35b60007f7965db0b000000000000000000000000000000000000000000000000000000007bffffffffffffffffffffffffffffffffffffffffffffffffffffffff1916827bffffffffffffffffffffffffffffffffffffffffffffffffffffffff191614806108f957506108f882611bb5565b5b9050919050565b60606003805461090f90613b2f565b80601f016020809104026020016040519081016040528092919081815260200182805461093b90613b2f565b80156109885780601f1061095d57610100808354040283529160200191610988565b820191906000526020600020905b81548152906001019060200180831161096b57829003601f168201915b5050505050905090565b60006109a661099f611c1f565b8484611c27565b6001905092915050565b6109b8612c0f565b85816000019073ffffffffffffffffffffffffffffffffffffffff16908173ffffffffffffffffffffffffffffffffffffffff16815250508481602001818152505083816040019015159081151581525050828160600181815250506008600083815260200190815260200160002081908060018154018082558091505060019003906000526020600020906004020160009091909190915060008201518160000160006101000a81548173ffffffffffffffffffffffffffffffffffffffff021916908373ffffffffffffffffffffffffffffffffffffffff1602179055506020820151816001015560408201518160020160006101000a81548160ff021916908315150217905550606082015181600301555050505050505050565b6000600254905090565b60096020528060005260406000206000915090505481565b6000610b05848484611df2565b6000600160008673ffffffffffffffffffffffffffffffffffffffff1673ffffffffffffffffffffffffffffffffffffffff1681526020019081526020016000206000610b50611c1f565b73ffffffffffffffffffffffffffffffffffffffff1673ffffffffffffffffffffffffffffffffffffffff16815260200190815260200160002054905082811015610bd0576040517f08c379a0000000000000000000000000000000000000000000000000000000008152600401610bc790613629565b60405180910390fd5b610bed85610bdc611c1f565b8584610be891906139e5565b611c27565b60019150509392505050565b600060056000838152602001908152602001600020600101549050919050565b610c2282610bf9565b610c3381610c2e611c1f565b612071565b610c3d838361210e565b505050565b60006006905090565b610c53611c1f565b73ffffffffffffffffffffffffffffffffffffffff168173ffffffffffffffffffffffffffffffffffffffff1614610cc0576040517f08c379a0000000000000000000000000000000000000000000000000000000008152600401610cb790613729565b60405180910390fd5b610cca82826121ef565b5050565b6000610d70610cdb611c1f565b848460016000610ce9611c1f565b73ffffffffffffffffffffffffffffffffffffffff1673ffffffffffffffffffffffffffffffffffffffff16815260200190815260200160002060008873ffffffffffffffffffffffffffffffffffffffff1673ffffffffffffffffffffffffffffffffffffffff16815260200190815260200160002054610d6b9190613870565b611c27565b6001905092915050565b610d8b610d85611c1f565b826122d1565b50565b600a54600660009054906101000a900473ffffffffffffffffffffffffffffffffffffffff1673ffffffffffffffffffffffffffffffffffffffff166370a08231306040518263ffffffff1660e01b8152600401610dec91906133db565b60206040518083038186803b158015610e0457600080fd5b505afa158015610e18573d6000803e3d6000fd5b505050506040513d601f19601f82011682018060405250810190610e3c9190612f29565b610e4691906139e5565b811115610e5257600080fd5b610e6a33620f424083610e6591906138f7565b6122d1565b600760009054906101000a900473ffffffffffffffffffffffffffffffffffffffff1673ffffffffffffffffffffffffffffffffffffffff1663a9059cbb33620f424084610eb891906138f7565b6040518363ffffffff1660e01b8152600401610ed592919061342d565b602060405180830381600087803b158015610eef57600080fd5b505af1158015610f03573d6000803e3d6000fd5b505050506040513d601f19601f82011682018060405250810190610f279190612e49565b5050565b60008060008373ffffffffffffffffffffffffffffffffffffffff1673ffffffffffffffffffffffffffffffffffffffff168152602001908152602001600020549050919050565b6000610f8683610f81611c1f565b611943565b905081811015610fcb576040517f08c379a0000000000000000000000000000000000000000000000000000000008152600401610fc290613649565b60405180910390fd5b610fe883610fd7611c1f565b8484610fe391906139e5565b611c27565b610ff283836122d1565b505050565b6000600760009054906101000a900473ffffffffffffffffffffffffffffffffffffffff1673ffffffffffffffffffffffffffffffffffffffff166370a08231306040518263ffffffff1660e01b815260040161105491906133db565b60206040518083038186803b15801561106c57600080fd5b505afa158015611080573d6000803e3d6000fd5b505050506040513d601f19601f820116820180604052508101906110a49190612f29565b905090565b600760009054906101000a900473ffffffffffffffffffffffffffffffffffffffff1681565b600660009054906101000a900473ffffffffffffffffffffffffffffffffffffffff1681565b818461110191906138f7565b600a54600760009054906101000a900473ffffffffffffffffffffffffffffffffffffffff1673ffffffffffffffffffffffffffffffffffffffff166370a08231306040518263ffffffff1660e01b815260040161115f91906133db565b60206040518083038186803b15801561117757600080fd5b505afa15801561118b573d6000803e3d6000fd5b505050506040513d601f19601f820116820180604052508101906111af9190612f29565b6111b991906139e5565b116111f9576040517f08c379a00000000000000000000000000000000000000000000000000000000081526004016111f090613609565b60405180910390fd5b6112563330620f42408761120d91906138f7565b600760009054906101000a900473ffffffffffffffffffffffffffffffffffffffff1673ffffffffffffffffffffffffffffffffffffffff166124a5909392919063ffffffff16565b61126385858585856109b0565b61127f600960008381526020019081526020016000205461252e565b600a5461128c91906139e5565b600a8190555082156112de5781846112a491906138f7565b60096000838152602001908152602001600020546112c291906137dc565b6009600083815260200190815260200160002081905550611320565b81846112ea91906138f7565b60096000838152602001908152602001600020546113089190613951565b60096000838152602001908152602001600020819055505b61133c600960008381526020019081526020016000205461252e565b600a546113499190613870565b600a819055505050505050565b60006005600084815260200190815260200160002060000160008373ffffffffffffffffffffffffffffffffffffffff1673ffffffffffffffffffffffffffffffffffffffff16815260200190815260200160002060009054906101000a900460ff16905092915050565b6060600480546113d090613b2f565b80601f01602080910402602001604051908101604052809291908181526020018280546113fc90613b2f565b80156114495780601f1061141e57610100808354040283529160200191611449565b820191906000526020600020905b81548152906001019060200180831161142c57829003601f168201915b5050505050905090565b6000801b81565b6000811161149d576040517f08c379a0000000000000000000000000000000000000000000000000000000008152600401611494906135c9565b60405180910390fd5b6114fa3330620f4240846114b191906138f7565b600760009054906101000a900473ffffffffffffffffffffffffffffffffffffffff1673ffffffffffffffffffffffffffffffffffffffff166124a5909392919063ffffffff16565b61151233620f42408361150d91906138f7565b61254f565b50565b60008060016000611524611c1f565b73ffffffffffffffffffffffffffffffffffffffff1673ffffffffffffffffffffffffffffffffffffffff16815260200190815260200160002060008573ffffffffffffffffffffffffffffffffffffffff1673ffffffffffffffffffffffffffffffffffffffff168152602001908152602001600020549050828110156115e1576040517f08c379a00000000000000000000000000000000000000000000000000000000081526004016115d890613709565b60405180910390fd5b6115fe6115ec611c1f565b8585846115f991906139e5565b611c27565b600191505092915050565b600061161d611616611c1f565b8484611df2565b6001905092915050565b60005b60086000848152602001908152602001600020805490508110156118eb57811515600860008581526020019081526020016000208281548110611696577f4e487b7100000000000000000000000000000000000000000000000000000000600052603260045260246000fd5b906000526020600020906004020160020160009054906101000a900460ff161515141561183157600760009054906101000a900473ffffffffffffffffffffffffffffffffffffffff1673ffffffffffffffffffffffffffffffffffffffff1663a9059cbb33600860008781526020019081526020016000208481548110611747577f4e487b7100000000000000000000000000000000000000000000000000000000600052603260045260246000fd5b9060005260206000209060040201600101546008600088815260200190815260200160002085815481106117a4577f4e487b7100000000000000000000000000000000000000000000000000000000600052603260045260246000fd5b9060005260206000209060040201600301546117c091906138f7565b6040518363ffffffff1660e01b81526004016117dd92919061342d565b602060405180830381600087803b1580156117f757600080fd5b505af115801561180b573d6000803e3d6000fd5b505050506040513d601f19601f8201168201806040525081019061182f9190612e49565b505b60086000848152602001908152602001600020818154811061187c577f4e487b7100000000000000000000000000000000000000000000000000000000600052603260045260246000fd5b9060005260206000209060040201600080820160006101000a81549073ffffffffffffffffffffffffffffffffffffffff021916905560018201600090556002820160006101000a81549060ff02191690556003820160009055505080806118e390613b61565b91505061162a565b505050565b600a5481565b7f9f2df0fed2c77648de5860a4cc508cd0818c85b8b8a1ab4ceeef8d981c8956a681565b61192382610bf9565b6119348161192f611c1f565b612071565b61193e83836121ef565b505050565b6000600160008473ffffffffffffffffffffffffffffffffffffffff1673ffffffffffffffffffffffffffffffffffffffff16815260200190815260200160002060008373ffffffffffffffffffffffffffffffffffffffff1673ffffffffffffffffffffffffffffffffffffffff16815260200190815260200160002054905092915050565b6000600a54905090565b600860205281600052604060002081815481106119f057600080fd5b9060005260206000209060040201600091509150508060000160009054906101000a900473ffffffffffffffffffffffffffffffffffffffff16908060010154908060020160009054906101000a900460ff16908060030154905084565b6000600760009054906101000a900473ffffffffffffffffffffffffffffffffffffffff1673ffffffffffffffffffffffffffffffffffffffff166370a08231306040518263ffffffff1660e01b8152600401611aab91906133db565b60206040518083038186803b158015611ac357600080fd5b505afa158015611ad7573d6000803e3d6000fd5b505050506040513d601f19601f82011682018060405250810190611afb9190612f29565b600660009054906101000a900473ffffffffffffffffffffffffffffffffffffffff1673ffffffffffffffffffffffffffffffffffffffff166370a08231306040518263ffffffff1660e01b8152600401611b5691906133db565b60206040518083038186803b158015611b6e57600080fd5b505afa158015611b82573d6000803e3d6000fd5b505050506040513d601f19601f82011682018060405250810190611ba69190612f29565b611bb091906138c6565b905090565b60007f01ffc9a7000000000000000000000000000000000000000000000000000000007bffffffffffffffffffffffffffffffffffffffffffffffffffffffff1916827bffffffffffffffffffffffffffffffffffffffffffffffffffffffff1916149050919050565b600033905090565b600073ffffffffffffffffffffffffffffffffffffffff168373ffffffffffffffffffffffffffffffffffffffff161415611c97576040517f08c379a0000000000000000000000000000000000000000000000000000000008152600401611c8e906136a9565b60405180910390fd5b600073ffffffffffffffffffffffffffffffffffffffff168273ffffffffffffffffffffffffffffffffffffffff161415611d07576040517f08c379a0000000000000000000000000000000000000000000000000000000008152600401611cfe90613589565b60405180910390fd5b80600160008573ffffffffffffffffffffffffffffffffffffffff1673ffffffffffffffffffffffffffffffffffffffff16815260200190815260200160002060008473ffffffffffffffffffffffffffffffffffffffff1673ffffffffffffffffffffffffffffffffffffffff168152602001908152602001600020819055508173ffffffffffffffffffffffffffffffffffffffff168373ffffffffffffffffffffffffffffffffffffffff167f8c5be1e5ebec7d5bd14f71427d1e84f3dd0314c0f7b2291e5b200ac8c7c3b92583604051611de59190613769565b60405180910390a3505050565b600073ffffffffffffffffffffffffffffffffffffffff168373ffffffffffffffffffffffffffffffffffffffff161415611e62576040517f08c379a0000000000000000000000000000000000000000000000000000000008152600401611e5990613689565b60405180910390fd5b600073ffffffffffffffffffffffffffffffffffffffff168273ffffffffffffffffffffffffffffffffffffffff161415611ed2576040517f08c379a0000000000000000000000000000000000000000000000000000000008152600401611ec990613549565b60405180910390fd5b611edd8383836126a3565b60008060008573ffffffffffffffffffffffffffffffffffffffff1673ffffffffffffffffffffffffffffffffffffffff16815260200190815260200160002054905081811015611f63576040517f08c379a0000000000000000000000000000000000000000000000000000000008152600401611f5a906135a9565b60405180910390fd5b8181611f6f91906139e5565b6000808673ffffffffffffffffffffffffffffffffffffffff1673ffffffffffffffffffffffffffffffffffffffff16815260200190815260200160002081905550816000808573ffffffffffffffffffffffffffffffffffffffff1673ffffffffffffffffffffffffffffffffffffffff1681526020019081526020016000206000828254611fff9190613870565b925050819055508273ffffffffffffffffffffffffffffffffffffffff168473ffffffffffffffffffffffffffffffffffffffff167fddf252ad1be2c89b69c2b068fc378daa952ba7f163c4a11628f55a4df523b3ef846040516120639190613769565b60405180910390a350505050565b61207b8282611356565b61210a576120a08173ffffffffffffffffffffffffffffffffffffffff1660146126a8565b6120ae8360001c60206126a8565b6040516020016120bf9291906133a1565b6040516020818303038152906040526040517f08c379a00000000000000000000000000000000000000000000000000000000081526004016121019190613507565b60405180910390fd5b5050565b6121188282611356565b6121eb5760016005600084815260200190815260200160002060000160008373ffffffffffffffffffffffffffffffffffffffff1673ffffffffffffffffffffffffffffffffffffffff16815260200190815260200160002060006101000a81548160ff021916908315150217905550612190611c1f565b73ffffffffffffffffffffffffffffffffffffffff168173ffffffffffffffffffffffffffffffffffffffff16837f2f8788117e7eff1d82e926ec794901d17c78024a50270940304540a733656f0d60405160405180910390a45b5050565b6121f98282611356565b156122cd5760006005600084815260200190815260200160002060000160008373ffffffffffffffffffffffffffffffffffffffff1673ffffffffffffffffffffffffffffffffffffffff16815260200190815260200160002060006101000a81548160ff021916908315150217905550612272611c1f565b73ffffffffffffffffffffffffffffffffffffffff168173ffffffffffffffffffffffffffffffffffffffff16837ff6391f5c32d9c69d2a47ea670b442974b53935d1edc7fd64eb21e047a839171b60405160405180910390a45b5050565b600073ffffffffffffffffffffffffffffffffffffffff168273ffffffffffffffffffffffffffffffffffffffff161415612341576040517f08c379a000000000000000000000000000000000000000000000000000000000815260040161233890613669565b60405180910390fd5b61234d826000836126a3565b60008060008473ffffffffffffffffffffffffffffffffffffffff1673ffffffffffffffffffffffffffffffffffffffff168152602001908152602001600020549050818110156123d3576040517f08c379a00000000000000000000000000000000000000000000000000000000081526004016123ca90613569565b60405180910390fd5b81816123df91906139e5565b6000808573ffffffffffffffffffffffffffffffffffffffff1673ffffffffffffffffffffffffffffffffffffffff16815260200190815260200160002081905550816002600082825461243391906139e5565b92505081905550600073ffffffffffffffffffffffffffffffffffffffff168373ffffffffffffffffffffffffffffffffffffffff167fddf252ad1be2c89b69c2b068fc378daa952ba7f163c4a11628f55a4df523b3ef846040516124989190613769565b60405180910390a3505050565b612528846323b872dd60e01b8585856040516024016124c6939291906133f6565b604051602081830303815290604052907bffffffffffffffffffffffffffffffffffffffffffffffffffffffff19166020820180517bffffffffffffffffffffffffffffffffffffffffffffffffffffffff83818316178352505050506129a2565b50505050565b600080821261253d5781612548565b8161254790613baa565b5b9050919050565b600073ffffffffffffffffffffffffffffffffffffffff168273ffffffffffffffffffffffffffffffffffffffff1614156125bf576040517f08c379a00000000000000000000000000000000000000000000000000000000081526004016125b690613749565b60405180910390fd5b6125cb600083836126a3565b80600260008282546125dd9190613870565b92505081905550806000808473ffffffffffffffffffffffffffffffffffffffff1673ffffffffffffffffffffffffffffffffffffffff16815260200190815260200160002060008282546126329190613870565b925050819055508173ffffffffffffffffffffffffffffffffffffffff16600073ffffffffffffffffffffffffffffffffffffffff167fddf252ad1be2c89b69c2b068fc378daa952ba7f163c4a11628f55a4df523b3ef836040516126979190613769565b60405180910390a35050565b505050565b6060600060028360026126bb91906138f7565b6126c59190613870565b67ffffffffffffffff811115612704577f4e487b7100000000000000000000000000000000000000000000000000000000600052604160045260246000fd5b6040519080825280601f01601f1916602001820160405280156127365781602001600182028036833780820191505090505b5090507f300000000000000000000000000000000000000000000000000000000000000081600081518110612794577f4e487b7100000000000000000000000000000000000000000000000000000000600052603260045260246000fd5b60200101907effffffffffffffffffffffffffffffffffffffffffffffffffffffffffffff1916908160001a9053507f78000000000000000000000000000000000000000000000000000000000000008160018151811061281e577f4e487b7100000000000000000000000000000000000000000000000000000000600052603260045260246000fd5b60200101907effffffffffffffffffffffffffffffffffffffffffffffffffffffffffffff1916908160001a9053506000600184600261285e91906138f7565b6128689190613870565b90505b6001811115612954577f3031323334353637383961626364656600000000000000000000000000000000600f8616601081106128d0577f4e487b7100000000000000000000000000000000000000000000000000000000600052603260045260246000fd5b1a60f81b82828151811061290d577f4e487b7100000000000000000000000000000000000000000000000000000000600052603260045260246000fd5b60200101907effffffffffffffffffffffffffffffffffffffffffffffffffffffffffffff1916908160001a905350600485901c94508061294d90613b05565b905061286b565b5060008414612998576040517f08c379a000000000000000000000000000000000000000000000000000000000815260040161298f90613529565b60405180910390fd5b8091505092915050565b6000612a04826040518060400160405280602081526020017f5361666545524332303a206c6f772d6c6576656c2063616c6c206661696c65648152508573ffffffffffffffffffffffffffffffffffffffff16612a699092919063ffffffff16565b9050600081511115612a645780806020019051810190612a249190612e49565b612a63576040517f08c379a0000000000000000000000000000000000000000000000000000000008152600401612a5a906136e9565b60405180910390fd5b5b505050565b6060612a788484600085612a81565b90509392505050565b606082471015612ac6576040517f08c379a0000000000000000000000000000000000000000000000000000000008152600401612abd906135e9565b60405180910390fd5b612acf85612b95565b612b0e576040517f08c379a0000000000000000000000000000000000000000000000000000000008152600401612b05906136c9565b60405180910390fd5b6000808673ffffffffffffffffffffffffffffffffffffffff168587604051612b37919061338a565b60006040518083038185875af1925050503d8060008114612b74576040519150601f19603f3d011682016040523d82523d6000602084013e612b79565b606091505b5091509150612b89828286612ba8565b92505050949350505050565b600080823b905060008111915050919050565b60608315612bb857829050612c08565b600083511115612bcb5782518084602001fd5b816040517f08c379a0000000000000000000000000000000000000000000000000000000008152600401612bff9190613507565b60405180910390fd5b9392505050565b6040518060800160405280600073ffffffffffffffffffffffffffffffffffffffff16815260200160008152602001600015158152602001600081525090565b600081359050612c5e816141b3565b92915050565b600081359050612c73816141ca565b92915050565b600081519050612c88816141ca565b92915050565b600081359050612c9d816141e1565b92915050565b600081359050612cb2816141f8565b92915050565b600081359050612cc78161420f565b92915050565b600081519050612cdc8161420f565b92915050565b600060208284031215612cf457600080fd5b6000612d0284828501612c4f565b91505092915050565b60008060408385031215612d1e57600080fd5b6000612d2c85828601612c4f565b9250506020612d3d85828601612c4f565b9150509250929050565b600080600060608486031215612d5c57600080fd5b6000612d6a86828701612c4f565b9350506020612d7b86828701612c4f565b9250506040612d8c86828701612cb8565b9150509250925092565b60008060408385031215612da957600080fd5b6000612db785828601612c4f565b9250506020612dc885828601612cb8565b9150509250929050565b600080600080600060a08688031215612dea57600080fd5b6000612df888828901612c4f565b9550506020612e0988828901612cb8565b9450506040612e1a88828901612c64565b9350506060612e2b88828901612cb8565b9250506080612e3c88828901612cb8565b9150509295509295909350565b600060208284031215612e5b57600080fd5b6000612e6984828501612c79565b91505092915050565b600060208284031215612e8457600080fd5b6000612e9284828501612c8e565b91505092915050565b60008060408385031215612eae57600080fd5b6000612ebc85828601612c8e565b9250506020612ecd85828601612c4f565b9150509250929050565b600060208284031215612ee957600080fd5b6000612ef784828501612ca3565b91505092915050565b600060208284031215612f1257600080fd5b6000612f2084828501612cb8565b91505092915050565b600060208284031215612f3b57600080fd5b6000612f4984828501612ccd565b91505092915050565b60008060408385031215612f6557600080fd5b6000612f7385828601612cb8565b9250506020612f8485828601612c64565b9150509250929050565b60008060408385031215612fa157600080fd5b6000612faf85828601612cb8565b9250506020612fc085828601612cb8565b9150509250929050565b612fd381613a19565b82525050565b612fe281613a2b565b82525050565b612ff181613a37565b82525050565b60006130028261379f565b61300c81856137b5565b935061301c818560208601613ad2565b80840191505092915050565b61303181613aae565b82525050565b61304081613a6d565b82525050565b6000613051826137aa565b61305b81856137c0565b935061306b818560208601613ad2565b61307481613c80565b840191505092915050565b600061308a826137aa565b61309481856137d1565b93506130a4818560208601613ad2565b80840191505092915050565b60006130bd6020836137c0565b91506130c882613c91565b602082019050919050565b60006130e06023836137c0565b91506130eb82613cba565b604082019050919050565b60006131036022836137c0565b915061310e82613d09565b604082019050919050565b60006131266022836137c0565b915061313182613d58565b604082019050919050565b60006131496026836137c0565b915061315482613da7565b604082019050919050565b600061316c6010836137c0565b915061317782613df6565b602082019050919050565b600061318f6026836137c0565b915061319a82613e1f565b604082019050919050565b60006131b26016836137c0565b91506131bd82613e6e565b602082019050919050565b60006131d56028836137c0565b91506131e082613e97565b604082019050919050565b60006131f86024836137c0565b915061320382613ee6565b604082019050919050565b600061321b6021836137c0565b915061322682613f35565b604082019050919050565b600061323e6025836137c0565b915061324982613f84565b604082019050919050565b60006132616024836137c0565b915061326c82613fd3565b604082019050919050565b6000613284601d836137c0565b915061328f82614022565b602082019050919050565b60006132a76017836137d1565b91506132b28261404b565b601782019050919050565b60006132ca602a836137c0565b91506132d582614074565b604082019050919050565b60006132ed6025836137c0565b91506132f8826140c3565b604082019050919050565b60006133106011836137d1565b915061331b82614112565b601182019050919050565b6000613333602f836137c0565b915061333e8261413b565b604082019050919050565b6000613356601f836137c0565b91506133618261418a565b602082019050919050565b61337581613a97565b82525050565b61338481613aa1565b82525050565b60006133968284612ff7565b915081905092915050565b60006133ac8261329a565b91506133b8828561307f565b91506133c382613303565b91506133cf828461307f565b91508190509392505050565b60006020820190506133f06000830184612fca565b92915050565b600060608201905061340b6000830186612fca565b6134186020830185612fca565b613425604083018461336c565b949350505050565b60006040820190506134426000830185612fca565b61344f602083018461336c565b9392505050565b600060808201905061346b6000830187612fca565b613478602083018661336c565b6134856040830185612fd9565b613492606083018461336c565b95945050505050565b60006020820190506134b06000830184612fd9565b92915050565b60006020820190506134cb6000830184612fe8565b92915050565b60006020820190506134e66000830184613028565b92915050565b60006020820190506135016000830184613037565b92915050565b600060208201905081810360008301526135218184613046565b905092915050565b60006020820190508181036000830152613542816130b0565b9050919050565b60006020820190508181036000830152613562816130d3565b9050919050565b60006020820190508181036000830152613582816130f6565b9050919050565b600060208201905081810360008301526135a281613119565b9050919050565b600060208201905081810360008301526135c28161313c565b9050919050565b600060208201905081810360008301526135e28161315f565b9050919050565b6000602082019050818103600083015261360281613182565b9050919050565b60006020820190508181036000830152613622816131a5565b9050919050565b60006020820190508181036000830152613642816131c8565b9050919050565b60006020820190508181036000830152613662816131eb565b9050919050565b600060208201905081810360008301526136828161320e565b9050919050565b600060208201905081810360008301526136a281613231565b9050919050565b600060208201905081810360008301526136c281613254565b9050919050565b600060208201905081810360008301526136e281613277565b9050919050565b60006020820190508181036000830152613702816132bd565b9050919050565b60006020820190508181036000830152613722816132e0565b9050919050565b6000602082019050818103600083015261374281613326565b9050919050565b6000602082019050818103600083015261376281613349565b9050919050565b600060208201905061377e600083018461336c565b92915050565b6000602082019050613799600083018461337b565b92915050565b600081519050919050565b600081519050919050565b600081905092915050565b600082825260208201905092915050565b600081905092915050565b60006137e782613a6d565b91506137f283613a6d565b9250817f7fffffffffffffffffffffffffffffffffffffffffffffffffffffffffffffff0383136000831215161561382d5761382c613bf3565b5b817f800000000000000000000000000000000000000000000000000000000000000003831260008312161561386557613864613bf3565b5b828201905092915050565b600061387b82613a97565b915061388683613a97565b9250827fffffffffffffffffffffffffffffffffffffffffffffffffffffffffffffffff038211156138bb576138ba613bf3565b5b828201905092915050565b60006138d182613a97565b91506138dc83613a97565b9250826138ec576138eb613c22565b5b828204905092915050565b600061390282613a97565b915061390d83613a97565b9250817fffffffffffffffffffffffffffffffffffffffffffffffffffffffffffffffff048311821515161561394657613945613bf3565b5b828202905092915050565b600061395c82613a6d565b915061396783613a6d565b9250827f8000000000000000000000000000000000000000000000000000000000000000018212600084121516156139a2576139a1613bf3565b5b827f7fffffffffffffffffffffffffffffffffffffffffffffffffffffffffffffff0182136000841216156139da576139d9613bf3565b5b828203905092915050565b60006139f082613a97565b91506139fb83613a97565b925082821015613a0e57613a0d613bf3565b5b828203905092915050565b6000613a2482613a77565b9050919050565b60008115159050919050565b6000819050919050565b60007fffffffff0000000000000000000000000000000000000000000000000000000082169050919050565b6000819050919050565b600073ffffffffffffffffffffffffffffffffffffffff82169050919050565b6000819050919050565b600060ff82169050919050565b6000613ab982613ac0565b9050919050565b6000613acb82613a77565b9050919050565b60005b83811015613af0578082015181840152602081019050613ad5565b83811115613aff576000848401525b50505050565b6000613b1082613a97565b91506000821415613b2457613b23613bf3565b5b600182039050919050565b60006002820490506001821680613b4757607f821691505b60208210811415613b5b57613b5a613c51565b5b50919050565b6000613b6c82613a97565b91507fffffffffffffffffffffffffffffffffffffffffffffffffffffffffffffffff821415613b9f57613b9e613bf3565b5b600182019050919050565b6000613bb582613a6d565b91507f8000000000000000000000000000000000000000000000000000000000000000821415613be857613be7613bf3565b5b816000039050919050565b7f4e487b7100000000000000000000000000000000000000000000000000000000600052601160045260246000fd5b7f4e487b7100000000000000000000000000000000000000000000000000000000600052601260045260246000fd5b7f4e487b7100000000000000000000000000000000000000000000000000000000600052602260045260246000fd5b6000601f19601f8301169050919050565b7f537472696e67733a20686578206c656e67746820696e73756666696369656e74600082015250565b7f45524332303a207472616e7366657220746f20746865207a65726f206164647260008201527f6573730000000000000000000000000000000000000000000000000000000000602082015250565b7f45524332303a206275726e20616d6f756e7420657863656564732062616c616e60008201527f6365000000000000000000000000000000000000000000000000000000000000602082015250565b7f45524332303a20617070726f766520746f20746865207a65726f20616464726560008201527f7373000000000000000000000000000000000000000000000000000000000000602082015250565b7f45524332303a207472616e7366657220616d6f756e742065786365656473206260008201527f616c616e63650000000000000000000000000000000000000000000000000000602082015250565b7f486168612c20766572792066756e6e7900000000000000000000000000000000600082015250565b7f416464726573733a20696e73756666696369656e742062616c616e636520666f60008201527f722063616c6c0000000000000000000000000000000000000000000000000000602082015250565b7f496e73756666696369656e74204c697175696469747900000000000000000000600082015250565b7f45524332303a207472616e7366657220616d6f756e742065786365656473206160008201527f6c6c6f77616e6365000000000000000000000000000000000000000000000000602082015250565b7f45524332303a206275726e20616d6f756e74206578636565647320616c6c6f7760008201527f616e636500000000000000000000000000000000000000000000000000000000602082015250565b7f45524332303a206275726e2066726f6d20746865207a65726f2061646472657360008201527f7300000000000000000000000000000000000000000000000000000000000000602082015250565b7f45524332303a207472616e736665722066726f6d20746865207a65726f20616460008201527f6472657373000000000000000000000000000000000000000000000000000000602082015250565b7f45524332303a20617070726f76652066726f6d20746865207a65726f2061646460008201527f7265737300000000000000000000000000000000000000000000000000000000602082015250565b7f416464726573733a2063616c6c20746f206e6f6e2d636f6e7472616374000000600082015250565b7f416363657373436f6e74726f6c3a206163636f756e7420000000000000000000600082015250565b7f5361666545524332303a204552433230206f7065726174696f6e20646964206e60008201527f6f74207375636365656400000000000000000000000000000000000000000000602082015250565b7f45524332303a2064656372656173656420616c6c6f77616e63652062656c6f7760008201527f207a65726f000000000000000000000000000000000000000000000000000000602082015250565b7f206973206d697373696e6720726f6c6520000000000000000000000000000000600082015250565b7f416363657373436f6e74726f6c3a2063616e206f6e6c792072656e6f756e636560008201527f20726f6c657320666f722073656c660000000000000000000000000000000000602082015250565b7f45524332303a206d696e7420746f20746865207a65726f206164647265737300600082015250565b6141bc81613a19565b81146141c757600080fd5b50565b6141d381613a2b565b81146141de57600080fd5b50565b6141ea81613a37565b81146141f557600080fd5b50565b61420181613a41565b811461420c57600080fd5b50565b61421881613a97565b811461422357600080fd5b5056fea2646970667358221220f86ce7f2a5c3154ea8bdb6b7b51635d8b8f796b6f12691acae27e9cf35314d0464736f6c63430008040033",
  "linkReferences": {},
  "deployedLinkReferences": {}
}